:100000000C9462000C948A000C948A000C948A0070
:100010000C948A000C948A000C948A000C948A0038
:100020000C948A000C948A000C948A000C948A0028
:100030000C948A000C948A000C948A000C948A0018
:100040000C9477020C948A000C9445020C941F02C5
:100050000C948A000C948A000C948A000C948A00F8
:100060000C948A000C948A000000000024002700F1
:100070002A000000000023002600290000000000E4
:10008000250028002B0004040404040404040202D4
:100090000202020203030303030301020408102007
:1000A0004080010204081020010204081020000012
:1000B0000008000201000003040700000000000027
:1000C00000005F0411241FBECFEFD8E0DEBFCDBF1C
:1000D00011E0A0E0B1E0ECE6F9E002C005900D927D
:1000E000A633B107D9F721E0A6E3B1E001C01D9224
:1000F000A23EB207E1F710E0C2E6D0E004C02197CB
:10010000FE010E94AE04C136D107C9F70E94C102A8
:100110000C94B4040C940000AF92BF92CF92DF9283
:10012000EF92FF920F931F93CF93DF936C017B01AC
:100130008B01040F151FEB015E01AE18BF08C0173D
:10014000D10759F06991D601ED91FC910190F081B0
:10015000E02DC6010995892B79F7C501DF91CF9173
:100160001F910F91FF90EF90DF90CF90BF90AF90D5
:100170000895FC01538D448D252F30E0842F90E0AD
:10018000821B930B541710F0CF9608950197089592
:10019000FC01918D828D981761F0A28DAE0FBF2F5B
:1001A000B11D5D968C91928D9F5F9F73928F90E0B1
:1001B00008958FEF9FEF0895FC01918D828D981720
:1001C00031F0828DE80FF11D858D90E008958FEF5D
:1001D0009FEF0895FC01918D228D892F90E0805C26
:1001E0009F4F821B91098F739927089585E491E0B1
:1001F0000E94EA0021E0892B09F420E0822F089573
:1002000080E090E0892B29F00E94F60081110C9487
:1002100000000895FC01A48DA80FB92FB11DA35AA9
:10022000BF4F2C91848D90E001968F739927848F16
:10023000A689B7892C93A089B1898C918370806439
:100240008C93938D848D981306C00288F389E02DDA
:1002500080818F7D80830895EF92FF920F931F938B
:10026000CF93DF93EC0181E0888F9B8D8C8D981369
:100270001AC0E889F989808185FF15C09FB7F89475
:10028000EE89FF896083E889F989808183708064C1
:1002900080839FBF81E090E0DF91CF911F910F910C
:1002A000FF90EF900895F62E0B8D10E00F5F1F4F1B
:1002B0000F731127E02E8C8D8E110CC00FB607FC2A
:1002C000FACFE889F989808185FFF5CFCE010E94B8
:1002D0000A01F1CFEB8DEC0FFD2FF11DE35AFF4F1B
:1002E000F0829FB7F8940B8FEA89FB898081806246
:1002F000CFCFCF93DF93EC01888D8823B9F0AA8903
:10030000BB89E889F9898C9185FD03C0808186FDD0
:100310000DC00FB607FCF7CF8C9185FFF2CF80811F
:1003200085FFEDCFCE010E940A01E9CFDF91CF9189
:100330000895833081F028F4813099F08230A9F05B
:1003400008958730A9F08830C9F08430B1F48091E5
:1003500080008F7D03C0809180008F778093800024
:10036000089584B58F7784BD089584B58F7DFBCFC4
:100370008091B0008F778093B00008958091B00095
:100380008F7DF9CF1F93CF93DF93EBEBF0E0949148
:10039000E7EAF0E0D491E3E9F0E0C491CC23B9F0CE
:1003A000182F992319F0892F0E949901EC2FF0E062
:1003B000EE0FFF1FE458FF4FA591B4918FB7F8944B
:1003C000EC91111108C0D095DE23DC938FBFDF9133
:1003D000CF911F910895DE2BF8CF3FB7F89480910D
:1003E0003B0190913C01A0913D01B0913E0126B5A9
:1003F000A89B05C02F3F19F00196A11DB11D3FBF5D
:10040000BA2FA92F982F8827BC01CD01620F711D2B
:10041000811D911D42E0660F771F881F991F4A9525
:10042000D1F70895FC0101900020E9F73197AF0161
:10043000481B590BBC0185E491E00C948C001F9281
:100440000F920FB60F9211242F933F934F935F9308
:100450006F937F938F939F93AF93BF93EF93FF938C
:1004600085E491E00E940A01FF91EF91BF91AF9165
:100470009F918F917F916F915F914F913F912F91BC
:100480000F900FBE0F901F9018951F920F920FB6EE
:100490000F9211242F938F939F93EF93FF93E091EB
:1004A0005501F09156018081E0915B01F0915C0172
:1004B00082FD1BC0908180915E018F5F8F732091C0
:1004C0005F01821741F0E0915E01F0E0EB5BFE4FCF
:1004D000958F80935E01FF91EF919F918F912F9166
:1004E0000F900FBE0F901F9018958081F4CF1F9230
:1004F0000F920FB60F9211242F933F938F939F93D8
:10050000AF93BF938091370190913801A091390149
:10051000B0913A013091360123E0230F2D3758F581
:100520000196A11DB11D2093360180933701909350
:100530003801A0933901B0933A0180913B01909129
:100540003C01A0913D01B0913E010196A11DB11D5C
:1005500080933B0190933C01A0933D01B0933E01F9
:10056000BF91AF919F918F913F912F910F900FBEAF
:100570000F901F90189526E8230F0296A11DB11D1C
:10058000D2CFCF93DF93CDB7DEB7A1970FB6F89454
:10059000DEBF0FBECDBF789484B5826084BD84B5C4
:1005A000816084BD85B5826085BD85B5816085BD6E
:1005B00080916E00816080936E0010928100809126
:1005C00081008260809381008091810081608093AE
:1005D0008100809180008160809380008091B100D3
:1005E00084608093B1008091B00081608093B000FE
:1005F00080917A00846080937A0080917A00826092
:1006000080937A0080917A00816080937A00809153
:100610007A00806880937A001092C100ECE9F0E0E3
:10062000249158E8252E50E0352EF101849188233D
:10063000C9F090E0880F991FFC01E859FF4FA59180
:10064000B491FC01E458FF4F459154913FB7F894A1
:100650009C91822F809598239C93FA019081892305
:1006600080833FBFE7EAF0E02491E3E9F0E0849182
:10067000882399F090E0880F991FFC01E859FF4FFB
:10068000A591B491FC01E458FF4F859194918FB7E7
:10069000F894EC91E22BEC938FBFE0915501F0912F
:1006A000560182E08083E0915101F0915201108265
:1006B000E0915301F09154018FEC808310925D0121
:1006C000E0915901F0915A0186E08083E091570151
:1006D000F0915801808180618083E0915701F09111
:1006E0005801808188608083E0915701F091580122
:1006F000808180688083E0915701F091580180816A
:100700008F7D80832AE0422E512C612C712C00E0D9
:1007100010E0E0EBF0E08491ECE9F0E0F490F1011E
:10072000E490EE2009F4ABC081110E949901EE2DF6
:10073000F0E0EE0FFF1FEE58FF4FA591B4918C91A2
:10074000F82231E020E009F430E0832F922F9093DB
:1007500044018093430120914101309142012817C7
:10076000390709F46DC0019709F0A2C080913F01DB
:100770009091400101969093400180933F0182E166
:1007800091E00E94120285E191E00E94120288E14C
:1007900091E00E941202C0903F01D09040010D2CC8
:1007A000000CEE08FF08F7FE6DC06DE285E491E0F5
:1007B0000E942C0122273327A9012C193D094E093B
:1007C0005F0919A2CE0181967C01CA01B901A3017A
:1007D00092010E948C04605DF70162937F012115F4
:1007E00031054105510589F7C701EF2809F062C0BD
:1007F00085E191E00E9412020E94ED014B015C0133
:1008000082E3C82ED12CE12CF12C0E94ED01681955
:1008100079098A099B09683E734081059105A8F30F
:10082000F1E0CF1AD108E108F10828EE820E23E0AA
:10083000921EA11CB11CC114D104E104F10429F7DA
:100840008091430190914401909342018093410132
:1008500080913F019091400183709927892B69F520
:1008600081E00E94C2010115110509F452CF0E94D6
:10087000F600882309F44DCF0E9400004ACF90E093
:1008800080E065CFA701960119A2CE0181967C0177
:10089000CA01B901A30192010E948C04605DF701B5
:1008A00062937F01211531054105510589F79CCFE0
:1008B00082E391E00E9412029BCF80E0D2CFE5E478
:1008C000F1E01382128288EE93E0A0E0B0E084832E
:1008D0009583A683B78384E091E09183808385EC40
:1008E00090E09587848784EC90E09787868780ECFA
:1008F00090E0918B808B81EC90E0938B828B82ECEB
:1009000090E0958B848B86EC90E0978B868B118E94
:10091000128E138E148E0895A1E21A2EAA1BBB1BF1
:10092000FD010DC0AA1FBB1FEE1FFF1FA217B307BB
:10093000E407F50720F0A21BB30BE40BF50B661FD1
:10094000771F881F991F1A9469F760957095809595
:1009500090959B01AC01BD01CF010895EE0FFF1FE3
:0C0960000590F491E02D0994F894FFCF6D
:10096C00000000002C018C00B9007901EA00C800DD
:10097C00DC006F6E000D0A006E756D626572206F83
:10098C006620627574746F6E207075736865733A47
:06099C0020006F666600FA
:00000001FF
