:100000000C945C000C9479000C9479000C947900A9
:100010000C9479000C9479000C9479000C9479007C
:100020000C9479000C9479000C9479000C9479006C
:100030000C9479000C9479000C9479000C9479005C
:100040000C940B010C9479000C9479000C947900B9
:100050000C9479000C9479000C9479000C9479003C
:100060000C9479000C947900000000080002010053
:100070000003040700000000000000000000000072
:10008000250028002B0000000000240027002A0083
:10009000040404040404040402020202020203032E
:1000A0000303030301020408102040800102040836
:1000B000102001020408102011241FBECFEFD8E049
:1000C000DEBFCDBF11E0A0E0B1E0E6E7F4E002C0A2
:1000D00005900D92A230B107D9F721E0A2E0B1E07E
:1000E00001C01D92AD30B207E1F70E9455010C949A
:1000F00039020C94000090E0FC01EC55FF4F249174
:1001000080579F4FFC018491882399F090E0880FDD
:10011000991FFC01EA57FF4FA591B491FC01E458E7
:10012000FF4F859194918FB7F894EC91E22BEC936B
:100130008FBF089590E0FC01E859FF4F2491FC0126
:10014000EC55FF4F3491FC01E057FF4FE491EE2353
:10015000C9F0222339F0233001F1A8F4213019F13C
:10016000223029F1F0E0EE0FFF1FE458FF4FA59178
:10017000B4918FB7F894EC91611126C030953E236D
:100180003C938FBF08952730A9F02830C9F0243060
:1001900049F7809180008F7D03C0809180008F7728
:1001A00080938000DFCF84B58F7784BDDBCF84B5AB
:1001B0008F7DFBCF8091B0008F778093B000D2CF3E
:1001C0008091B0008F7DF9CF3E2BDACF3FB7F89406
:1001D0008091070190910801A0910901B0910A0155
:1001E00026B5A89B05C02F3F19F00196A11DB11D92
:1001F0003FBFBA2FA92F982F8827BC01CD01620FCE
:10020000711D811D911D42E0660F771F881F991F88
:100210004A95D1F708951F920F920FB60F921124AD
:100220002F933F938F939F93AF93BF93809103013D
:1002300090910401A0910501B09106013091020155
:1002400023E0230F2D3758F50196A11DB11D2093F2
:1002500002018093030190930401A0930501B093E0
:1002600006018091070190910801A0910901B091C8
:100270000A010196A11DB11D809307019093080109
:10028000A0930901B0930A01BF91AF919F918F9103
:100290003F912F910F900FBE0F901F90189526E859
:1002A000230F0296A11DB11DD2CF789484B5826030
:1002B00084BD84B5816084BD85B5826085BD85B50A
:1002C000816085BD80916E00816080936E00109288
:1002D0008100809181008260809381008091810003
:1002E0008160809381008091800081608093800094
:1002F0008091B10084608093B1008091B0008160F2
:100300008093B00080917A00846080937A0080911D
:100310007A00826080937A0080917A008160809375
:100320007A0080917A00806880937A001092C100F0
:1003300089E00E947B0091E7E92E90E0F92E00E031
:1003400010E0C0910B01D0910C0189E00E947B006C
:10035000209709F048C060E089E00E949A0020914F
:1003600000013091010180910B0190910C01820FED
:10037000931F90930C0180930B0101978E3F910581
:1003800038F0319521953109309301012093000116
:100390000E94E6002B013C018EE1882E912CA12CBD
:1003A000B12C0E94E6006419750986099709683E18
:1003B000734081059105A8F3F1E08F1A9108A10817
:1003C000B10828EE420E23E0521E611C711C8114FC
:1003D0009104A104B10429F70115110509F4B1CF65
:1003E0000E940000AECFCF3FD10511F461E0B4CF41
:1003F000F7018491833019F140F48130B1F08230FB
:10040000C9F0C038D10594F7A6CF873011F18830F4
:1004100041F18430B1F78091800080628093800048
:10042000D0938B00C0938A009ACF84B5806884BD36
:10043000C7BD95CF84B5806284BDC8BD90CF809183
:100440008000806880938000D0938900C0938800EA
:1004500086CF8091B00080688093B000C093B300D5
:100460007ECF8091B00080628093B000C093B400D2
:0604700076CFF894FFCFE7
:0204760005007F
:00000001FF
