:100000000C945C000C9479000C9479000C947900A9
:100010000C9479000C9479000C9479000C9479007C
:100020000C9479000C9479000C9479000C9479006C
:100030000C9479000C9479000C9479000C9479005C
:100040000C94F7000C9479000C9479000C947900CE
:100050000C9479000C9479000C9479000C9479003C
:100060000C9479000C947900000000080002010053
:100070000003040700000000000000000000000072
:10008000250028002B0000000000240027002A0083
:10009000040404040404040402020202020203032E
:1000A0000303030301020408102040800102040836
:1000B000102001020408102011241FBECFEFD8E049
:1000C000DEBFCDBF11E0A0E0B1E0EEE3F5E002C09D
:1000D00005900D92A230B107D9F721E0A2E0B1E07E
:1000E00001C01D92AD30B207E1F70E9441010C94AE
:1000F0009D020C94000080E480937C0080917A0043
:10010000806480937A0080917A0086FDFCCF809194
:10011000780090917900089590E0FC01EC55FF4F34
:10012000249180579F4FFC018491882399F090E09F
:10013000880F991FFC01EA57FF4FA591B491FC016C
:10014000E458FF4F859194918FB7F894EC91E22B8E
:10015000EC938FBF089590E0FC01E859FF4F249184
:10016000FC01EC55FF4F3491FC01E057FF4FE49147
:10017000EE23C9F0222339F0233001F1A8F4213015
:1001800019F1223029F1F0E0EE0FFF1FE458FF4F84
:10019000A591B4918FB7F894EC91611126C0309578
:1001A0003E233C938FBF08952730A9F02830C9F033
:1001B000243049F7809180008F7D03C080918000BA
:1001C0008F7780938000DFCF84B58F7784BDDBCFBE
:1001D00084B58F7DFBCF8091B0008F778093B00086
:1001E000D2CF8091B0008F7DF9CF3E2BDACF1F9216
:1001F0000F920FB60F9211242F933F938F939F93DB
:10020000AF93BF938091070190910801A0910901DC
:10021000B0910A013091060123E0230F2D3758F5E4
:100220000196A11DB11D20930601809307019093B3
:100230000801A0930901B0930A01809102019091F5
:100240000301A0910401B09105010196A11DB11D0A
:100250008093020190930301A0930401B0930501E0
:10026000BF91AF919F918F913F912F910F900FBEB2
:100270000F901F90189526E8230F0296A11DB11D1F
:10028000D2CF789484B5826084BD84B5816084BD0A
:1002900085B5826085BD85B5816085BD80916E0024
:1002A000816080936E001092810080918100826055
:1002B0008093810080918100816080938100809192
:1002C00080008160809380008091B1008460809381
:1002D000B1008091B00081608093B00080917A007D
:1002E000846080937A0080917A00826080937A00A3
:1002F00080917A00816080937A0080917A00806892
:1003000080937A001092C1008DE00E948C0061E021
:100310008DE00E94AB002FB7F89480910701909177
:100320000801A0910901B0910A012FBF88389341BB
:10033000A105B105C8F40E947B0020910B0130910A
:100340000C012817390724F490930C0180930B01BA
:10035000209100013091010182179307E4F69093F8
:10036000010180930001D7CF60E08DE00E94AB00D7
:1003700081E7C82E80E0D82E90E0E92E90E0F92E9B
:100380000E947B008090000190900101092C000CDC
:10039000AA08BB089C01990F440B550B2819390971
:1003A0004A095B09AFEFB0E00E94610220910B01A6
:1003B00030910C01032E000C440B550B2819390900
:1003C0004A095B090E944202C22FB32E022F132F4B
:1003D00089E00E948C001016110654F060E089E05C
:1003E0000E94AB00E114F10459F20E940000C8CF52
:1003F0000F3F110514F061E0F2CFF60184918330D4
:1004000029F140F48130C1F08230D9F00038110573
:1004100094F7E4CF873031F1883061F18430B1F75F
:10042000809180008062809380008C2F9B2D909320
:100430008B0080938A00D6CF84B5806884BDC7BD09
:10044000D1CF84B5806284BDC8BDCCCF80918000FF
:100450008068809380008C2F9B2D909389008093DF
:100460008800C0CF8091B00080688093B000C093B6
:10047000B300B8CF8091B00080628093B000C09389
:10048000B400B0CF052E97FB1EF400940E945902D1
:1004900057FD07D00E946C0207FC03D04EF40C9469
:1004A000590250954095309521953F4F4F4F5F4FE2
:1004B000089590958095709561957F4F8F4F9F4FD0
:1004C00008950E948E02A59F900DB49F900DA49F49
:1004D000800D911D11240895A1E21A2EAA1BBB1BA9
:1004E000FD010DC0AA1FBB1FEE1FFF1FA217B30700
:1004F000E407F50720F0A21BB30BE40BF50B661F16
:10050000771F881F991F1A9469F7609570958095D9
:1005100090959B01AC01BD01CF010895A29FB00150
:10052000B39FC001A39F700D811D1124911DB29F27
:0E053000700D811D1124911D0895F894FFCFC8
:02053E00FF03B9
:00000001FF
