:100000000C945C000C946E000C946E000C946E00CA
:100010000C946E000C946E000C946E000C946E00A8
:100020000C946E000C946E000C946E000C946E0098
:100030000C946E000C946E000C946E000C946E0088
:100040000C9470000C946E000C946E000C946E0076
:100050000C946E000C946E000C946E000C946E0068
:100060000C946E000C946E00000000002400270029
:100070002A0000000000250028002B0004040404CE
:100080000404040402020202020203030303030342
:10009000010204081020408001020408102001021F
:1000A00004081020000000080002010000030407FB
:1000B000000000000000000011241FBECFEFD8E0B8
:1000C000DEBFCDBF21E0A0E0B1E001C01D92AF30A6
:1000D000B207E1F70E94BA000C94AC010C94000046
:1000E0001F920F920FB60F9211242F933F938F936D
:1000F0009F93AF93BF938091050190910601A091CA
:100100000701B09108013091040123E0230F2D373E
:1001100058F50196A11DB11D20930401809305019E
:1001200090930601A0930701B0930801809100010C
:1001300090910101A0910201B09103010196A11DCE
:10014000B11D8093000190930101A0930201B0932F
:100150000301BF91AF919F918F913F912F910F908C
:100160000FBE0F901F90189526E8230F0296A11D31
:10017000B11DD2CF789484B5826084BD84B581608E
:1001800084BD85B5826085BD85B5816085BD809162
:100190006E00816080936E001092810080918100DA
:1001A00082608093810080918100816080938100D2
:1001B000809180008160809380008091B100846094
:1001C0008093B1008091B00081608093B0008091F5
:1001D0007A00846080937A0080917A0082608093B4
:1001E0007A0080917A00816080937A0080917A0011
:1001F000806880937A001092C100C3E9D0E0FE01CC
:1002000024910FE710E0F8018491882399F090E0A1
:10021000880F991FFC01E859FF4FA591B491FC018B
:10022000EE58FF4F859194918FB7F8949C91292BAC
:100230002C938FBF27EAC22E20E0D22E30E0E32E8F
:1002400030E0F32EAA24A394B12C2FB7F894809118
:10025000050190910601A0910701B09108012FBFFF
:1002600040910B0150910C0160910D0170910E01B4
:100270003C014D01641A750A860A970AB401A3016C
:10028000483E53406105710508F436C080930B0168
:1002900090930C01A0930D01B0930E018091090180
:1002A00090910A01892B79F5B0920A01A092090177
:1002B000F6019491FE018491F80134913323E1F029
:1002C00020910901992339F0933061F108F59130BB
:1002D00079F1923089F1E32FF0E0EE0FFF1FEE5835
:1002E000FF4FA591B4919FB7F894211132C02C9182
:1002F000809582238C939FBFE114F10409F4A5CF6C
:100300000E940000A2CF10920A0110920901D0CFE2
:100310009730A9F09830C9F09430E9F690918000B8
:100320009F7D03C0909180009F7790938000D3CFF2
:1003300094B59F7794BDCFCF94B59F7DFBCF90911F
:10034000B0009F779093B000C6CF9091B0009F7D92
:0C035000F9CF2C91822BCECFF894FFCF78
:00000001FF
