:100000000C945D000C9485000C9485000C94850084
:100010000C9485000C9485000C9485000C9485004C
:100020000C9485000C9485000C9485000C9485003C
:100030000C9485000C9485000C9485000C9485002C
:100040000C9449020C9485000C94B9020C94930210
:100050000C9485000C9485000C9485000C9485000C
:100060000C9485000C94850000000008000201003B
:100070000003040700000000000000000000000072
:10008000250028002B0000000000240027002A0083
:10009000040404040404040402020202020203032E
:1000A0000303030301020408102040800102040836
:1000B00010200102040810203A0411241FBECFEFC3
:1000C000D8E0DEBFCDBF11E0A0E0B1E0ECE8F9E0A0
:1000D00002C005900D92AC32B107D9F721E0ACE235
:1000E000B1E001C01D92A63DB207E1F710E0CDE5F9
:1000F000D0E004C02197FE010E94BE04CC35D10798
:10010000C9F70E94EB020C94C4040C940000EDEAC1
:10011000F0E02491E9E9F0E08491882399F090E0FF
:10012000880F991FFC01EA57FF4FA591B491FC017C
:10013000E458FF4F859194918FB7F894EC91E22B9E
:10014000EC938FBF0895E1E7F0E02491EDEAF0E051
:100150009491E9E9F0E0E491EE23C9F0222339F02B
:10016000233001F1A8F4213019F1223029F1F0E017
:10017000EE0FFF1FE458FF4FA591B4912FB7F894ED
:10018000EC91811126C090959E239C932FBF0895DA
:100190002730A9F02830C9F0243049F72091800099
:1001A0002F7D03C0209180002F7720938000DFCF28
:1001B00024B52F7724BDDBCF24B52F7DFBCF209135
:1001C000B0002F772093B000D2CF2091B0002F7DC8
:1001D000F9CF9E2BDACFAF92BF92CF92DF92EF9200
:1001E000FF920F931F93CF93DF936C017B018B01E1
:1001F000040F151FEB015E01AE18BF08C017D10731
:1002000059F06991D601ED91FC910190F081E02DBA
:10021000C6010995892B79F7C501DF91CF911F910F
:100220000F91FF90EF90DF90CF90BF90AF90089527
:10023000FC01538D448D252F30E0842F90E0821BEC
:10024000930B541710F0CF96089501970895FC0171
:10025000918D828D981761F0A28DAE0FBF2FB11DC9
:100260005D968C91928D9F5F9F73928F90E0089521
:100270008FEF9FEF0895FC01918D828D981731F0DB
:10028000828DE80FF11D858D90E008958FEF9FEF2F
:100290000895FC01918D228D892F90E0805C9F4F05
:1002A000821B91098F739927089589E391E00E9439
:1002B000490121E0892B09F420E0822F089580E094
:1002C00090E0892B29F00E94550181110C940000C7
:1002D0000895FC01A48DA80FB92FB11DA35ABF4FDB
:1002E0002C91848D90E001968F739927848FA68935
:1002F000B7892C93A089B1898C91837080648C9389
:10030000938D848D981306C00288F389E02D808137
:100310008F7D80830895EF92FF920F931F93CF9369
:10032000DF93EC0181E0888F9B8D8C8D98131AC030
:10033000E889F989808185FF15C09FB7F894EE8917
:10034000FF896083E889F989808183708064808374
:100350009FBF81E090E0DF91CF911F910F91FF90BF
:10036000EF900895F62E0B8D10E00F5F1F4F0F7367
:100370001127E02E8C8D8E110CC00FB607FCFACF22
:10038000E889F989808185FFF5CFCE010E94690156
:10039000F1CFEB8DEC0FFD2FF11DE35AFF4FF082F3
:1003A0009FB7F8940B8FEA89FB8980818062CFCF59
:1003B000CF93DF93EC01888D8823B9F0AA89BB899C
:1003C000E889F9898C9185FD03C0808186FD0DC087
:1003D0000FB607FCF7CF8C9185FFF2CF808185FFA8
:1003E000EDCFCE010E946901E9CFDF91CF91089551
:1003F000FC0101900020E9F73197AF01481B590B30
:10040000BC0189E391E00C94EB008F929F92AF9234
:10041000BF920F931F93CF93DF93CDB7DEB7A19712
:100420000FB6F894DEBF0FBECDBF19A2423008F45C
:100430004AE08E010F5D1F4F842E912CB12CA12C10
:10044000A50194010E948604E62FB901CA01EA3091
:10045000F4F4E05DD801EE938D01232B242B252BA2
:1004600079F790E080E0109719F0CD010E94F80133
:10047000A1960FB6F894DEBF0FBECDBFDF91CF912E
:100480001F910F91BF90AF909F908F900895E95C5E
:10049000E1CF1F920F920FB60F9211242F933F932B
:1004A0008F939F93AF93BF938091350190913601C5
:1004B000A0913701B09138013091340123E0230F2E
:1004C0002D3758F50196A11DB11D2093340180935D
:1004D000350190933601A0933701B0933801809194
:1004E000300190913101A0913201B0913301019618
:1004F000A11DB11D8093300190933101A093320171
:10050000B0933301BF91AF919F918F913F912F9104
:100510000F900FBE0F901F90189526E8230F02969C
:10052000A11DB11DD2CF1F920F920FB60F921124B1
:100530002F933F934F935F936F937F938F939F93EB
:10054000AF93BF93EF93FF9389E391E00E9469011A
:10055000FF91EF91BF91AF919F918F917F916F919B
:100560005F914F913F912F910F900FBE0F901F9071
:1005700018951F920F920FB60F9211242F938F93FD
:100580009F93EF93FF93E0914901F0914A0180819D
:10059000E0914F01F091500182FD1BC0908180914C
:1005A00052018F5F8F7320915301821741F0E091C8
:1005B0005201F0E0E75CFE4F958F80935201FF916E
:1005C000EF919F918F912F910F900FBE0F901F90E1
:1005D00018958081F4CF789484B5826084BD84B509
:1005E000816084BD85B5826085BD85B5816085BD2E
:1005F00080916E00816080936E00109281008091E6
:10060000810082608093810080918100816080936D
:100610008100809180008160809380008091B10092
:1006200084608093B1008091B00081608093B000BD
:1006300080917A00846080937A0080917A00826051
:1006400080937A0080917A00816080937A00809113
:100650007A00806880937A001092C100E09149018D
:10066000F0914A0182E08083E0914501F0914601DA
:100670001082E0914701F09148018FEC8083109245
:100680005101E0914D01F0914E0186E08083E091AF
:100690004B01F0914C01808180618083E0914B019E
:1006A000F0914C01808188608083E0914B01F09152
:1006B0004C01808180688083E0914B01F0914C0176
:1006C00080818F7D80830E94870080E4782E88243B
:1006D0008A9493E0992EA12CB12C01E710E0C0E0A0
:1006E000D0E070927C0080917A00806480937A00E0
:1006F00080917A0086FDFCCF80917800A0917900EE
:10070000BA2FA82FB0932F01A0932E012FEF30E026
:100710000E94B704A50194010E946704D22EC32E43
:10072000E22EF32EF0922D01E0922C010E94870020
:10073000E114F10409F052C080E00E94A30082E1BC
:1007400091E00E94F801C0902E01D0902F010D2C55
:10075000000CEE08FF084AE0C701B601F7FE0DC025
:100760006DE289E391E00E948B0166277727CB0138
:100770006C197D098E099F094AE00E9405028CE1EF
:1007800091E00E94F801C0902C01D0902D010D2C19
:10079000000CEE08FF084AE0C701B601F7FE0DC0E5
:1007A0006DE289E391E00E948B0166277727CB01F8
:1007B0006C197D098E099F094AE00E94050288E2B2
:1007C00091E00E94F801209709F48BCF0E94550117
:1007D000882309F486CF0E94000083CF8FEFE816AC
:1007E000F10411F481E0A9CFF8018491833031F153
:1007F00048F48130C9F08230E1F0F0E8EF16F104FE
:100800008CF79ACF873031F1883061F18430A9F7C5
:10081000809180008062809380008D2D9C2D90932C
:100820008B0080938A008BCF84B5806884BDD7BC51
:1008300086CF84B5806284BDD8BC81CF8091800092
:100840008068809380008D2D9C2D909389008093EB
:10085000880075CF8091B00080688093B000D092FE
:10086000B3006DCF8091B00080628093B000D092D1
:10087000B40065CFE9E3F1E01382128288EE93E0E1
:10088000A0E0B0E084839583A683B78384E091E001
:100890009183808385EC90E09587848784EC90E059
:1008A0009787868780EC90E0918B808B81EC90E03D
:1008B000938B828B82EC90E0958B848B86EC90E01E
:1008C000978B868B118E128E138E148E0895052EA3
:1008D00097FB1EF400940E947E0457FD07D00E94EF
:1008E000860407FC03D04EF40C947E04509540958A
:1008F000309521953F4F4F4F5F4F089590958095CC
:10090000709561957F4F8F4F9F4F0895A1E21A2EEA
:10091000AA1BBB1BFD010DC0AA1FBB1FEE1FFF1FA3
:10092000A217B307E407F50720F0A21BB30BE40BF3
:10093000F50B661F771F881F991F1A9469F760953A
:100940007095809590959B01AC01BD01CF010895F4
:10095000A29FB001B39FC001A39F700D811D112400
:10096000911DB29F700D811D1124911D08950E944B
:10097000A804B7FF0895821B930B0895EE0FFF1F85
:0C0980000590F491E02D0994F894FFCF4D
:10098C00000000008B01EB001801D8014901270180
:10099C003B0173656E736F72203D200009206F75EB
:0C09AC0074707574203D20000D0A0000DE
:00000001FF
