:020000040000FA
:100000000C945D000C9485000C9485000C94850084
:100010000C9485000C9485000C9485000C9485004C
:100020000C9485000C9485000C9485000C9485003C
:100030000C9485000C9485000C9485000C9485002C
:100040000C94C6020C9485000C9494020C946E02DD
:100050000C9485000C9485000C9485000C9485000C
:100060000C9485000C94850000000008000201003B
:100070000003040700000000000000000000000072
:10008000250028002B0000000000240027002A0083
:10009000040404040404040402020202020203032E
:1000A0000303030301020408102040800102040836
:1000B0001020010204081020820411241FBECFEF7B
:1000C000D8E0DEBFCDBF11E0A0E0B1E0ECE1FAE0A6
:1000D00002C005900D92AC32B107D9F721E0ACE235
:1000E000B1E001C01D92A63DB207E1F710E0CDE5F9
:1000F000D0E004C02197FE010E940605CC35D1074F
:10010000C9F70E9410030C940C050C940000EDEA52
:10011000F0E02491E9E9F0E08491882399F090E0FF
:10012000880F991FFC01EA57FF4FA591B491FC017C
:10013000E458FF4F859194918FB7F894EC91E22B9E
:10014000EC938FBF0895E1E7F0E02491EDEAF0E051
:100150009491E9E9F0E0E491EE23C9F0222339F02B
:10016000233001F1A8F4213019F1223029F1F0E017
:10017000EE0FFF1FE458FF4FA591B4912FB7F894ED
:10018000EC91811126C090959E239C932FBF0895DA
:100190002730A9F02830C9F0243049F72091800099
:1001A0002F7D03C0209180002F7720938000DFCF28
:1001B00024B52F7724BDDBCF24B52F7DFBCF209135
:1001C000B0002F772093B000D2CF2091B0002F7DC8
:1001D000F9CF9E2BDACFAF92BF92CF92DF92EF9200
:1001E000FF920F931F93CF93DF936C017B018B01E1
:1001F000040F151FEB015E01AE18BF08C017D10731
:1002000059F06991D601ED91FC910190F081E02DBA
:10021000C6010995892B79F7C501DF91CF911F910F
:100220000F91FF90EF90DF90CF90BF90AF90089527
:10023000FC01538D448D252F30E0842F90E0821BEC
:10024000930B541710F0CF96089501970895FC0171
:10025000918D828D981761F0A28DAE0FBF2FB11DC9
:100260005D968C91928D9F5F9F73928F90E0089521
:100270008FEF9FEF0895FC01918D828D981731F0DB
:10028000828DE80FF11D858D90E008958FEF9FEF2F
:100290000895FC01918D228D892F90E0805C9F4F05
:1002A000821B91098F739927089589E391E00E9439
:1002B000490121E0892B09F420E0822F089580E094
:1002C00090E0892B29F00E94550181110C940000C7
:1002D0000895FC01A48DA80FB92FB11DA35ABF4FDB
:1002E0002C91848D90E001968F739927848FA68935
:1002F000B7892C93A089B1898C91837080648C9389
:10030000938D848D981306C00288F389E02D808137
:100310008F7D80830895EF92FF920F931F93CF9369
:10032000DF93EC0181E0888F9B8D8C8D98131AC030
:10033000E889F989808185FF15C09FB7F894EE8917
:10034000FF896083E889F989808183708064808374
:100350009FBF81E090E0DF91CF911F910F91FF90BF
:10036000EF900895F62E0B8D10E00F5F1F4F0F7367
:100370001127E02E8C8D8E110CC00FB607FCFACF22
:10038000E889F989808185FFF5CFCE010E94690156
:10039000F1CFEB8DEC0FFD2FF11DE35AFF4FF082F3
:1003A0009FB7F8940B8FEA89FB8980818062CFCF59
:1003B000CF93DF93EC01888D8823B9F0AA89BB899C
:1003C000E889F9898C9185FD03C0808186FD0DC087
:1003D0000FB607FCF7CF8C9185FFF2CF808185FFA8
:1003E000EDCFCE010E946901E9CFDF91CF91089551
:1003F0003FB7F8948091310190913201A09133017F
:10040000B091340126B5A89B05C02F3F19F0019685
:10041000A11DB11D3FBFBA2FA92F982F8827BC015E
:10042000CD01620F711D811D911D42E0660F771F86
:10043000881F991F4A95D1F70895FC01019000206B
:10044000E9F73197AF01481B590BBC0189E391E0F3
:100450000C94EB008F929F92AF92BF920F931F93D9
:10046000CF93DF93CDB7DEB7A1970FB6F894DEBF79
:100470000FBECDBF19A2423008F44AE08E010F5DD5
:100480001F4F842E912CB12CA12CA50194010E9408
:10049000CE04E62FB901CA01EA30F4F4E05DD801D8
:1004A000EE938D01232B242B252B79F790E080E010
:1004B000109719F0CD010E941D02A1960FB6F89475
:1004C000DEBF0FBECDBFDF91CF911F910F91BF90C7
:1004D000AF909F908F900895E95CE1CF1F920F92AB
:1004E0000FB60F9211242F933F934F935F936F9307
:1004F0007F938F939F93AF93BF93EF93FF9389E382
:1005000091E00E946901FF91EF91BF91AF919F919E
:100510008F917F916F915F914F913F912F910F90AC
:100520000FBE0F901F9018951F920F920FB60F924B
:1005300011242F938F939F93EF93FF93E0914901A1
:10054000F0914A018081E0914F01F091500182FDCC
:100550001BC09081809152018F5F8F732091530156
:10056000821741F0E0915201F0E0E75CFE4F958F79
:1005700080935201FF91EF919F918F912F910F9056
:100580000FBE0F901F9018958081F4CF1F920F928D
:100590000FB60F9211242F933F938F939F93AF9396
:1005A000BF9380912D0190912E01A0912F01B091C8
:1005B000300130912C0123E0230F2D3758F501969F
:1005C000A11DB11D20932C0180932D0190932E012C
:1005D000A0932F01B09330018091310190913201AD
:1005E000A0913301B09134010196A11DB11D8093FA
:1005F000310190933201A0933301B0933401BF9144
:10060000AF919F918F913F912F910F900FBE0F90BF
:100610001F90189526E8230F0296A11DB11DD2CF79
:10062000789484B5826084BD84B5816084BD85B5CD
:10063000826085BD85B5816085BD80916E008160D9
:1006400080936E001092810080918100826080937F
:100650008100809181008160809381008091800081
:100660008160809380008091B10084608093B100AC
:100670008091B00081608093B00080917A008460A6
:1006800080937A0080917A00826080937A008091D2
:100690007A00816080937A0080917A0080688093EC
:1006A0007A001092C100E0914901F0914A0182E084
:1006B0008083E0914501F09146011082E09147016D
:1006C000F09148018FEC808310925101E0914D012F
:1006D000F0914E0186E08083E0914B01F0914C0156
:1006E000808180618083E0914B01F0914C01808199
:1006F00088608083E0914B01F0914C01808180689B
:100700008083E0914B01F0914C0180818F7D80834B
:100710000E94870020E4322E44244A9433E0532E72
:10072000612C712C01E710E0C0E0D0E030927C0039
:1007300080917A00806480937A0080917A0086FDAF
:10074000FCCFA0917800B0917900B0933801A093CC
:1007500037012FEF30E00E94FF04A30192010E94B5
:10076000AF04D22EC32EE22EF32EF0923601E09289
:1007700035010E948700E114F10409F06CC080E0AB
:100780000E94A30082E191E00E941D02C090370107
:10079000D09038010D2C000CEE08FF084AE0C7018C
:1007A000B601F7FE0DC06DE289E391E00E948B0176
:1007B00066277727CB016C197D098E099F094AE0CE
:1007C0000E942A028CE191E00E941D02C090350136
:1007D000D09036010D2C000CEE08FF084AE0C7014E
:1007E000B601F7FE0DC06DE289E391E00E948B0136
:1007F00066277727CB016C197D098E099F094AE08E
:100800000E942A0288E291E00E941D020E94F801E3
:100810006B017C0192E0892E912CA12CB12C0E94BD
:10082000F8016C197D098E099F09683E73408105A6
:100830009105A8F328EEC20E23E0D21EE11CF11CA4
:100840008A9489288A288B2809F451C0812C912CFC
:1008500054018394E4CF2FEFE216F10411F481E008
:100860008FCFF8018491833031F148F48130C9F0A1
:100870008230E1F0F0E8EF16F1048CF780CF87309A
:1008800031F1883061F18430A9F780918000806275
:10089000809380008D2D9C2D90938B0080938A00F7
:1008A00071CF84B5806884BDD7BC6CCF84B58062BD
:1008B00084BDD8BC67CF8091800080688093800021
:1008C0008D2D9C2D90938900809388005BCF809123
:1008D000B00080688093B000D092B30053CF809175
:1008E000B00080628093B000D092B4004BCF2097CC
:1008F00009F41CCF0E945501882309F417CF0E94E8
:10090000000014CFE9E3F1E01382128288EE93E055
:10091000A0E0B0E084839583A683B78384E091E070
:100920009183808385EC90E09587848784EC90E0C8
:100930009787868780EC90E0918B808B81EC90E0AC
:10094000938B828B82EC90E0958B848B86EC90E08D
:10095000978B868B118E128E138E148E0895052E12
:1009600097FB1EF400940E94C60457FD07D00E9416
:10097000CE0407FC03D04EF40C94C6045095409569
:10098000309521953F4F4F4F5F4F0895909580953B
:10099000709561957F4F8F4F9F4F0895A1E21A2E5A
:1009A000AA1BBB1BFD010DC0AA1FBB1FEE1FFF1F13
:1009B000A217B307E407F50720F0A21BB30BE40B63
:1009C000F50B661F771F881F991F1A9469F76095AA
:1009D0007095809590959B01AC01BD01CF01089564
:1009E000A29FB001B39FC001A39F700D811D112470
:1009F000911DB29F700D811D1124911D08950E94BB
:100A0000F004B7FF0895821B930B0895EE0FFF1FAC
:100A10000590F491E02D0994F894FFCF00000000B8
:100A20008B01EB001801D801490127013B017365D7
:100A30006E736F72203D200009206F75747075749D
:080A4000203D20000D0A00001A
:107E0000112484B714BE81FFF0D085E080938100F7
:107E100082E08093C00088E18093C10086E0809377
:107E2000C20080E18093C4008EE0C9D0259A86E02C
:107E300020E33CEF91E0309385002093840096BBD3
:107E4000B09BFECF1D9AA8958150A9F7CC24DD24C4
:107E500088248394B5E0AB2EA1E19A2EF3E0BF2EE7
:107E6000A2D0813461F49FD0082FAFD0023811F036
:107E7000013811F484E001C083E08DD089C08234E0
:107E800011F484E103C0853419F485E0A6D080C0E4
:107E9000853579F488D0E82EFF2485D0082F10E0AE
:107EA000102F00270E291F29000F111F8ED06801E7
:107EB0006FC0863521F484E090D080E0DECF843638
:107EC00009F040C070D06FD0082F6DD080E0C81688
:107ED00080E7D80618F4F601B7BEE895C0E0D1E017
:107EE00062D089930C17E1F7F0E0CF16F0E7DF06D8
:107EF00018F0F601B7BEE89568D007B600FCFDCFD4
:107F0000A601A0E0B1E02C9130E011968C91119780
:107F100090E0982F8827822B932B1296FA010C0160
:107F200087BEE89511244E5F5F4FF1E0A038BF0790
:107F300051F7F601A7BEE89507B600FCFDCF97BE46
:107F4000E89526C08437B1F42ED02DD0F82E2BD052
:107F50003CD0F601EF2C8F010F5F1F4F84911BD097
:107F6000EA94F801C1F70894C11CD11CFA94CF0C13
:107F7000D11C0EC0853739F428D08EE10CD085E9AC
:107F80000AD08FE07ACF813511F488E018D01DD067
:107F900080E101D065CF982F8091C00085FFFCCF94
:107FA0009093C60008958091C00087FFFCCF809118
:107FB000C00084FD01C0A8958091C6000895E0E648
:107FC000F0E098E1908380830895EDDF803219F02E
:107FD00088E0F5DFFFCF84E1DECF1F93182FE3DFCA
:107FE0001150E9F7F2DF1F91089580E0E8DFEE27F6
:047FF000FF270994CA
:027FFE00040479
:00000001FF
